:020000040800F2
:1000000098060020590100087F01000881010008BE
:1000100000000000000000000000000000000000E0
:100020000000000000000000000000008301000844
:100030000000000000000000850100081D0C000801
:1000400089010008000000008901000889010008FA
:100050008901000889010008890100088901000858
:1000600000000000890100088901000889010008DA
:1000700089010008890100088901000800000000CA
:10008000890100080000000000000000890100084C
:100090008901000889010008890100088901000818
:1000A000890100088901000889010008B10C0008D5
:1000B0008901000800F002F800F03EF80CA030C8FA
:1000C000083824182D18A246671EAB4654465D46D4
:1000D000AC4201D100F030F87E460F3E0FCCB64660
:1000E0000126334200D0FB1AA246AB4633431847E1
:1000F0003810000058100000103A02D378C878C1B8
:10010000FAD8520701D330C830C101D504680C6059
:10011000704700000023002400250026103A01D378
:1001200078C1FBD8520700D330C100D50B607047AF
:100130001FB51FBD10B510BD00F0F8F81146FFF750
:10014000F7FF00F03FFF00F010F903B4FFF7F2FFF4
:1001500003BC00F017F900000F4880F308880F482F
:100160000168090E0E4A914205D10E480E49016000
:100170000E480F4901600F4880470F480047FEE7CF
:10018000FEE7FEE7FEE7FEE7FEE700000B480C494E
:100190000C4A0D4B70470000980600200400000038
:1001A0001F00000018100240010000000000014084
:1001B00000000000350C0008B50000089800002081
:1001C00098060020980200209802002000220309CF
:1001D0008B422CD3030A8B4211D300239C464EE062
:1001E00003460B433CD4002243088B4231D303091E
:1001F0008B421CD3030A8B4201D394463FE0C309D0
:100200008B4201D3CB01C01A524183098B4201D3E7
:100210008B01C01A524143098B4201D34B01C01AD2
:10022000524103098B4201D30B01C01A5241C3084A
:100230008B4201D3CB00C01A524183088B4201D3B9
:100240008B00C01A524143088B4201D34B00C01AA5
:100250005241411A00D201465241104670475DE0BA
:10026000CA0F00D04942031000D34042534000223D
:100270009C4603098B422DD3030A8B4212D3FC22E6
:10028000890112BA030A8B420CD3890192118B4265
:1002900008D3890192118B4204D389013AD092117B
:1002A00000E08909C3098B4201D3CB01C01A524136
:1002B00083098B4201D38B01C01A524143098B42FF
:1002C00001D34B01C01A524103098B4201D30B01E8
:1002D000C01A5241C3088B4201D3CB00C01A52410D
:1002E00083088B4201D38B00C01A5241D9D24308F4
:1002F0008B4201D34B00C01A5241411A00D2014631
:10030000634652415B10104601D34042002B00D59A
:100310004942704763465B1000D3404201B500205C
:10032000C046C04602BD704770477047754600F032
:1003300025F8AE46050069465346C008C00085460C
:1003400018B020B5FFF722FF60BC00274908B64669
:100350000026C0C5C0C5C0C5C0C5C0C5C0C5C0C5D4
:10036000C0C5403D49008D46704710B50446C046A3
:10037000C0462046FFF7E9FE10BD00000048704768
:100380003400002001491820ABBEFEE72600020021
:100390007047F0B50A4600210023002400BF3DE06D
:1003A00001258D402B4615681D402C469C4234D1BA
:1003B0001579012D02D01579022D16D185684F00CF
:1003C0000326BE40B543856055794E00B54086682A
:1003D00035438560858801268E40B54385808588B4
:1003E00096798E40B6B23543858005684F00032666
:1003F000BE40B543056015794E00B54006683543EB
:100400000560C5684F000326BE40B543C560D57979
:100410004E00B540C6683543C560491C1029BFD39E
:10042000F0BDF0B5002300244D07EE0E1546B54093
:100430002B46CD10AE0005462035AD594E07F70EC0
:100440000F26BE40B543CE10B60007462037BD513B
:10045000CD10AE003D46AD591D432C46CD10AD002C
:100460003E467451F0BD02460020138A0B40002B1B
:1004700001D0012000E000207047018570478161B4
:1004800070470000044901600021017101214171A0
:1004900000218171C1717047FFFF000010B500207D
:1004A0004949087048708870C870087100243DE0A0
:1004B00040210920C006FFF7D6FF002804D042489B
:1004C0000078401C4049087020210920C006FFF731
:1004D000CAFF002804D03C484078401C3A49487084
:1004E00010210920C006FFF7BEFF002804D03648BF
:1004F0008078401C3449887008210920C006FFF725
:10050000B2FF002804D03048C078401C2E49C87083
:1005100004210920C006FFF7A6FF002804D02A48BE
:100520000079401C28490871601CC4B2642CBFDBF0
:10053000254800785A2806DD244800780121084320
:100540002249087003E021480078204908701E48BD
:1005500040785A2806DD1D480078022108431B49CF
:10056000087003E019480078184908701648807828
:100570005A2806DD154800780421084313490870FD
:1005800003E012480078114908700F48C0785A28D3
:1005900006DD0E480078082108430C49087003E086
:1005A0000A48007809490870074800795A2806DD8A
:1005B00006480078102108430449087003E0034806
:1005C00000780249087010BD25000020240000209A
:1005D00000218278002A27D0184A03231B02D21850
:1005E00003789B109B00D15802789207D30EFF220C
:1005F0009A400B469343194642789207120E0378AD
:100600009B07DB0E9A4011430C4A03231B02D218AE
:1006100003789B109B00D1500278D306DB0E012299
:100620009A40064B1A6007E00278D306DB0E0122DF
:100630009A40024B80331A607047000000E100E0EE
:1006400010B5002819DA1A4A03071B0F083B9B084C
:100650009B00D2588307DC0EFF23A3409A438B07ED
:100660001B0E8407E40EA3401A43114B0407240F0A
:10067000083CA408A4001A5118E00E4A03231B02E8
:10068000D21883089B00D2588307DC0EFF23A340B7
:100690009A438B071B0E8407E40EA3401A43054BB5
:1006A000032424021B198408A4001A5110BD000061
:1006B0001CED00E000E100E010B504461A481B49BB
:1006C0000978445419480078002806D001280AD037
:1006D000022814D0032824D115E0BB2C02D101201C
:1006E000124908701DE012480078844203D10220AC
:1006F0000E49087002E000200C49087011E0032048
:100700000A4908700DE00321074800F04BFCA042A5
:1007100003D10549887800F0CFFB00200349087019
:1007200000BF00BF10BD0000300000202A000020E4
:1007300024000020002905D0054A52690243044BD9
:100740005A6104E0024A52698243014B5A61704780
:1007500000100240002905D0054A92690243044B6B
:100760009A6104E0024A92698243014B9A617047A0
:1007700000100240FEB5044600250026002002902D
:10078000019000900027864840680C2108400546EB
:10079000002D06D0042D07D0082D08D00C2D2CD10B
:1007A00028E0804820602BE07E48206028E07C48DC
:1007B00040680F21890408400646794840680321B3
:1007C000C90308400290B00C861C0298002803D18F
:1007D0007548374647430BE07148C06A0007000F71
:1007E000401C01906F480199FFF7F0FC70430746E9
:1007F000276005E06D48206002E06A48206000BF85
:1008000000BF67484068F021084005462D09684848
:10081000405D009020680099C84060606048406872
:1008200007210902084005462D0A6148405D0090F5
:1008300061680098C140A1605948006BFF210131F7
:100840000840884202D05B48E0600DE054484068B0
:10085000012189030840884203D0A0684008E06075
:1008600002E0A0688008E0604D48006B402108402D
:10087000402802D05048206102E00120C0032061DE
:100880004748006B10210840102802D0454860619D
:1008900001E0206860614248006B8007800F0028FB
:1008A00002D1A068A06119E03D48006B8007800F6D
:1008B000012802D12068A06110E03948006B800750
:1008C000800F022802D18003A06107E03448006B4A
:1008D0008007800F032801D13248A0613048006BA7
:1008E000032109040840002802D1A068E06120E04B
:1008F0002B48006B032109040840012109048842A8
:1009000002D12068E06114E02548006B032109044E
:10091000084001214904884202D18010E06108E0CA
:100920001F48006B032109040840884201D11D487B
:10093000E0611B48006B032189040840002802D1B4
:10094000A068206220E01648006B0321890408405B
:1009500001218904884202D12068206214E01048F5
:10096000006B0321890408400121C904884202D197
:100970000011206208E00A48006B03218904084046
:10098000884201D1074820620548006B8021084059
:10099000802802D00548606200E06762FEBD00006A
:1009A0000010024000127A0000093D00006CDC02D9
:1009B00000000020809FD500128000000CB50020B0
:1009C00001900090314800680121090408432F4933
:1009D000086000BF2D4800680121490408400090CC
:1009E0000198401C01900098002804D105210903BA
:1009F00001988842EED12548006801214904084049
:100A0000002802D00120009001E000200090009812
:100A1000012839D111201E4908601C4840681B4933
:100A20004860084640684860084640687F21C9031E
:100A30008843164948600846406811210904084364
:100A400012494860084600680121090608430F4919
:100A5000086000BF0D4800680121490608400028D1
:100A6000F8D00A4840688008800008494860084675
:100A70004068022108430549486000BF03484068B8
:100A80000C2108400828F9D10CBD000000100240DC
:100A90000020024010B501218803FFF75BFE012111
:100AA0004804FFF747FE01218804FFF743FE00F0EA
:100AB00005F800F015F800F03BF810BD1CB500215A
:100AC0006846017181717C20009002216846C171E5
:100AD0000321417169460920C006FFF75AFC1CBD7D
:100AE0001CB5012168460171002181710E480090FA
:100AF00002216846C1710321417169460920C0067F
:100B0000FFF747FC01216846017100218171F8203F
:100B1000009002216846C171032141716946034872
:100B2000FFF737FC1CBD00000380000000040048F4
:100B300000B589B003A800F0B2F9E12000020390EB
:100B4000002008900C20079000200690059004904B
:100B500003A92F4800F022F901A8FFF793FC012117
:100B60006846017200218172012000030190022178
:100B70006846C1720321417201A90920C006FFF72E
:100B800008FC0221684601720021817201204002A6
:100B900001906846C1720321417201A90920C00673
:100BA000FFF7F7FB022168460172002181720120E4
:100BB000800201906846C1720321417201A9092097
:100BC000C006FFF7E6FB01220921C806FFF729FC52
:100BD00001220A210920C006FFF723FC1B216846D9
:100BE00001700021417001218170FFF7F1FC1B2091
:100BF00001218140074A116000BF0121044800F033
:100C000078F801220449024800F0A6F809B000BDB6
:100C10000038014000E100E00501050004480068DB
:100C2000002804D002480068401E0149086070474F
:100C30002C00002010B51B48006801210843194909
:100C40000860084640681849084016494860084648
:100C500000681649084013490860084600680121E9
:100C6000890488430F490860084640683F21090409
:100C700088430C4948600846C06A00090001C86200
:100C80000846006BFF215431884306490863084633
:100C9000406B40084000486300208860FFF78EFEEC
:100CA00010BD0000001002400CB8FF08FFFFF6FE68
:100CB00010B50949094800F028F801280AD1064969
:100CC000064800F00DF8054800F0E4F8C4B22046EC
:100CD000FFF7F2FC10BD00000501050000380140DF
:100CE00010B5002300220B0C01249C402246026216
:100CF00010BD002904D0026801231A43026003E0FA
:100D00000268520852000260704770B502460B46F6
:100D100000240021002500201E04350ED9B2012632
:100D20008E403146012D02D11668314006E0022D79
:100D300002D15668314001E0966831401C0C012612
:100D4000A6403446D6693440002903D0002C01D097
:100D5000012000E0002070BDF8B503460024002605
:100D600000960025002018460E04340ECEB20096E0
:100D70000127009EB7403D46022C01D1001D02E034
:100D8000032C00D10830002A03D006682E430660E9
:100D900002E00668AE430660F8BD0000F0B58BB017
:100DA00004460D46002700200A90002620684008CF
:100DB00040002060666803210903304688430646E8
:100DC000A8680643666026682D480640E96868689A
:100DD00008432969084306432660A66803210902DF
:100DE00030468843064668690643A6606846FFF7B2
:100DF000C1FC2448844202D106980A900DE02248A2
:100E0000844202D107980A9007E02048844202D128
:100E100008980A9001E002980A9020680121C9030D
:100E2000084000280CD029680A9A5000FFF7CEF934
:100E3000074629680A9A5000FFF7C8F90E4609E0EC
:100E400029680A98FFF7C2F9074629680A98FFF748
:100E5000BDF90E4628684008B04200D87F1C2068C3
:100E60000121C9030840002806D03807460F38463C
:100E70000749084030430746A7810BB0F0BD00008A
:100E8000F3E9FFFF00380140004400400048004003
:100E9000F0FF00000146888CC005C00D70474B2153
:100EA000C9010160002141608160C1600C210161C4
:100EB000002141617047000010B50446E007C00FF3
:100EC000002806D00121C9030920C006FFF7D7FA80
:100ED00005E00121C9030920C006FFF7CEFA022070
:100EE0002040002804D008212D48FFF7C8FA03E06D
:100EF00008212B48FFF7C1FA04202040002804D025
:100F000010212748FFF7BBFA03E010212448FFF720
:100F1000B4FA08202040002804D020212048FFF700
:100F2000AEFA03E020211E48FFF7A7FA1020204068
:100F3000002804D040211A48FFF7A1FA03E040211D
:100F40001748FFF79AFA20202040002804D080217B
:100F50001348FFF794FA03E080211148FFF78DFA58
:100F600040202040002805D002210920C006FFF7BC
:100F700086FA04E002210920C006FFF77EFA8020ED
:100F80002040002805D001210920C006FFF777FA8C
:100F900004E001210920C006FFF76FFA10BD000030
:100FA0000004004830B502460B46FF20002104E053
:100FB000545C4440024D285D491C9942F8DB30BD29
:100FC000281000087D21C90013480068FFF7FEF8CB
:100FD0000446601E1149884200D90CE0601E104989
:100FE00048610321081FFFF72BFB00200C49886193
:100FF0000720086100BFFFF74DFDFFF74FFA62B60B
:10100000002008490870012109030920C006FFF7E4
:1010100034FA00BFFEE7000010000020FFFFFF00D1
:1010200000E000E02A00002000316253C4F5A697DA
:10103000B988DBEA7D4C1F2E4372211087B6E5D4B8
:10104000FACB98A93E0F5C6D86B7E4D542732011A8
:101050003F0E5D6CFBCA99A8C5F4A7960130635298
:101060007C4D1E2FB889DAEB3D0C5F6EF9C89BAA48
:1010700084B5E6D7407122137E4F1C2DBA8BD8E978
:10108000C7F6A59403326150BB8AD9E87F4E1D2C68
:1010900002336051C6F7A495F8C99AAB3C0D5E6F58
:1010A0004170231285B4E7D67A4B1829BE8FDCED48
:1010B000C3F2A1900736655439085B6AFDCC9FAE38
:1010C00080B1E2D344752617FCCD9EAF38095A6B28
:1010D0004574271681B0E3D2BF8EDDEC7B4A192818
:1010E00006376455C2F3A0914776251483B2E1D048
:1010F000FECF9CAD3A0B586904356657C0F1A293F8
:10110000BD8CDFEE79481B2AC1F0A39205346756E7
:1011100078491A2BBC8DDEEF82B3E0D146772415D7
:101120003B0A5968FFCE9DAC481100080000002022
:1011300034000000F80000087C1100083400002092
:10114000640600001401000800000000010203040E
:101150000102030406070809006CDC02000000001D
:101160000000000001020304060708090000000057
:0C11700000000000000000000000000073
:040000050800015995
:00000001FF
